{
  "abi": [
    {
      "type": "function",
      "name": "getRegisteredAddress",
      "inputs": [
        {
          "name": "index",
          "type": "uint256",
          "internalType": "uint256"
        }
      ],
      "outputs": [
        {
          "name": "",
          "type": "address",
          "internalType": "address"
        }
      ],
      "stateMutability": "view"
    },
    {
      "type": "function",
      "name": "getRegisteredCount",
      "inputs": [],
      "outputs": [
        {
          "name": "",
          "type": "uint256",
          "internalType": "uint256"
        }
      ],
      "stateMutability": "view"
    },
    {
      "type": "function",
      "name": "registAddress",
      "inputs": [
        {
          "name": "addr",
          "type": "address",
          "internalType": "address"
        }
      ],
      "outputs": [],
      "stateMutability": "nonpayable"
    },
    {
      "type": "function",
      "name": "registeredAddresses",
      "inputs": [
        {
          "name": "",
          "type": "uint256",
          "internalType": "uint256"
        }
      ],
      "outputs": [
        {
          "name": "",
          "type": "address",
          "internalType": "address"
        }
      ],
      "stateMutability": "view"
    }
  ],
  "bytecode": {
    "object": "0x6080604052348015600e575f5ffd5b5061042a8061001c5f395ff3fe608060405234801561000f575f5ffd5b506004361061004a575f3560e01c80631a5ff8c41461004e578063508c7cdc1461006a5780636e9b85551461009a57806386a69935146100ca575b5f5ffd5b61006860048036038101906100639190610276565b6100e8565b005b610084600480360381019061007f91906102d4565b61014a565b604051610091919061030e565b60405180910390f35b6100b460048036038101906100af91906102d4565b6101d3565b6040516100c1919061030e565b60405180910390f35b6100d261020d565b6040516100df9190610336565b60405180910390f35b5f81908060018154018082558091505060019003905f5260205f20015f9091909190916101000a81548173ffffffffffffffffffffffffffffffffffffffff021916908373ffffffffffffffffffffffffffffffffffffffff16021790555050565b5f5f805490508210610191576040517f08c379a0000000000000000000000000000000000000000000000000000000008152600401610188906103a9565b60405180910390fd5b5f82815481106101a4576101a36103c7565b5b905f5260205f20015f9054906101000a900473ffffffffffffffffffffffffffffffffffffffff169050919050565b5f81815481106101e1575f80fd5b905f5260205f20015f915054906101000a900473ffffffffffffffffffffffffffffffffffffffff1681565b5f5f80549050905090565b5f5ffd5b5f73ffffffffffffffffffffffffffffffffffffffff82169050919050565b5f6102458261021c565b9050919050565b6102558161023b565b811461025f575f5ffd5b50565b5f813590506102708161024c565b92915050565b5f6020828403121561028b5761028a610218565b5b5f61029884828501610262565b91505092915050565b5f819050919050565b6102b3816102a1565b81146102bd575f5ffd5b50565b5f813590506102ce816102aa565b92915050565b5f602082840312156102e9576102e8610218565b5b5f6102f6848285016102c0565b91505092915050565b6103088161023b565b82525050565b5f6020820190506103215f8301846102ff565b92915050565b610330816102a1565b82525050565b5f6020820190506103495f830184610327565b92915050565b5f82825260208201905092915050565b7f496e646578206f7574206f6620626f756e6473000000000000000000000000005f82015250565b5f61039360138361034f565b915061039e8261035f565b602082019050919050565b5f6020820190508181035f8301526103c081610387565b9050919050565b7f4e487b71000000000000000000000000000000000000000000000000000000005f52603260045260245ffdfea2646970667358221220f5af6e3046c182bfb1023c809e7843dee76925ef15f8e5f627328fdfb45f844f64736f6c634300081c0033",
    "linkReferences": {}
  },
  "methodIdentifiers": {
    "getRegisteredAddress(uint256)": "508c7cdc",
    "getRegisteredCount()": "86a69935",
    "registAddress(address)": "1a5ff8c4",
    "registeredAddresses(uint256)": "6e9b8555"
  },
  "id": 19
}