{
  "abi": [
    {
      "type": "function",
      "name": "assets",
      "inputs": [
        {
          "name": "",
          "type": "address",
          "internalType": "address"
        }
      ],
      "outputs": [
        {
          "name": "",
          "type": "uint256",
          "internalType": "uint256"
        }
      ],
      "stateMutability": "view"
    },
    {
      "type": "function",
      "name": "getAsset",
      "inputs": [
        {
          "name": "addr",
          "type": "address",
          "internalType": "address"
        }
      ],
      "outputs": [
        {
          "name": "",
          "type": "uint256",
          "internalType": "uint256"
        }
      ],
      "stateMutability": "view"
    },
    {
      "type": "function",
      "name": "getRegisteredAddress",
      "inputs": [
        {
          "name": "index",
          "type": "uint256",
          "internalType": "uint256"
        }
      ],
      "outputs": [
        {
          "name": "",
          "type": "address",
          "internalType": "address"
        }
      ],
      "stateMutability": "view"
    },
    {
      "type": "function",
      "name": "getRegisteredCount",
      "inputs": [],
      "outputs": [
        {
          "name": "",
          "type": "uint256",
          "internalType": "uint256"
        }
      ],
      "stateMutability": "view"
    },
    {
      "type": "function",
      "name": "isRegistered",
      "inputs": [
        {
          "name": "",
          "type": "address",
          "internalType": "address"
        }
      ],
      "outputs": [
        {
          "name": "",
          "type": "bool",
          "internalType": "bool"
        }
      ],
      "stateMutability": "view"
    },
    {
      "type": "function",
      "name": "registAddress",
      "inputs": [
        {
          "name": "addr",
          "type": "address",
          "internalType": "address"
        }
      ],
      "outputs": [],
      "stateMutability": "nonpayable"
    },
    {
      "type": "function",
      "name": "registAsset",
      "inputs": [
        {
          "name": "yen",
          "type": "uint256",
          "internalType": "uint256"
        }
      ],
      "outputs": [],
      "stateMutability": "nonpayable"
    },
    {
      "type": "function",
      "name": "registeredAddresses",
      "inputs": [
        {
          "name": "",
          "type": "uint256",
          "internalType": "uint256"
        }
      ],
      "outputs": [
        {
          "name": "",
          "type": "address",
          "internalType": "address"
        }
      ],
      "stateMutability": "view"
    }
  ],
  "bytecode": {
    "object": "0x6080604052348015600e575f5ffd5b506108d08061001c5f395ff3fe608060405234801561000f575f5ffd5b5060043610610086575f3560e01c806386a699351161005957806386a6993514610136578063c3c5a54714610154578063d4c29e1c14610184578063f11b8188146101a057610086565b80631a5ff8c41461008a57806330b8b2c6146100a6578063508c7cdc146100d65780636e9b855514610106575b5f5ffd5b6100a4600480360381019061009f9190610593565b6101d0565b005b6100c060048036038101906100bb9190610593565b610310565b6040516100cd91906105d6565b60405180910390f35b6100f060048036038101906100eb9190610619565b610356565b6040516100fd9190610653565b60405180910390f35b610120600480360381019061011b9190610619565b6103df565b60405161012d9190610653565b60405180910390f35b61013e610419565b60405161014b91906105d6565b60405180910390f35b61016e60048036038101906101699190610593565b610424565b60405161017b9190610686565b60405180910390f35b61019e60048036038101906101999190610619565b610441565b005b6101ba60048036038101906101b59190610593565b610520565b6040516101c791906105d6565b60405180910390f35b60015f8273ffffffffffffffffffffffffffffffffffffffff1673ffffffffffffffffffffffffffffffffffffffff1681526020019081526020015f205f9054906101000a900460ff161561025a576040517f08c379a0000000000000000000000000000000000000000000000000000000008152600401610251906106f9565b60405180910390fd5b5f81908060018154018082558091505060019003905f5260205f20015f9091909190916101000a81548173ffffffffffffffffffffffffffffffffffffffff021916908373ffffffffffffffffffffffffffffffffffffffff1602179055506001805f8373ffffffffffffffffffffffffffffffffffffffff1673ffffffffffffffffffffffffffffffffffffffff1681526020019081526020015f205f6101000a81548160ff02191690831515021790555050565b5f60025f8373ffffffffffffffffffffffffffffffffffffffff1673ffffffffffffffffffffffffffffffffffffffff1681526020019081526020015f20549050919050565b5f5f80549050821061039d576040517f08c379a000000000000000000000000000000000000000000000000000000000815260040161039490610761565b60405180910390fd5b5f82815481106103b0576103af61077f565b5b905f5260205f20015f9054906101000a900473ffffffffffffffffffffffffffffffffffffffff169050919050565b5f81815481106103ed575f80fd5b905f5260205f20015f915054906101000a900473ffffffffffffffffffffffffffffffffffffffff1681565b5f5f80549050905090565b6001602052805f5260405f205f915054906101000a900460ff1681565b60015f3373ffffffffffffffffffffffffffffffffffffffff1673ffffffffffffffffffffffffffffffffffffffff1681526020019081526020015f205f9054906101000a900460ff166104ca576040517f08c379a00000000000000000000000000000000000000000000000000000000081526004016104c19061081c565b60405180910390fd5b8060025f3373ffffffffffffffffffffffffffffffffffffffff1673ffffffffffffffffffffffffffffffffffffffff1681526020019081526020015f205f8282546105169190610867565b9250508190555050565b6002602052805f5260405f205f915090505481565b5f5ffd5b5f73ffffffffffffffffffffffffffffffffffffffff82169050919050565b5f61056282610539565b9050919050565b61057281610558565b811461057c575f5ffd5b50565b5f8135905061058d81610569565b92915050565b5f602082840312156105a8576105a7610535565b5b5f6105b58482850161057f565b91505092915050565b5f819050919050565b6105d0816105be565b82525050565b5f6020820190506105e95f8301846105c7565b92915050565b6105f8816105be565b8114610602575f5ffd5b50565b5f81359050610613816105ef565b92915050565b5f6020828403121561062e5761062d610535565b5b5f61063b84828501610605565b91505092915050565b61064d81610558565b82525050565b5f6020820190506106665f830184610644565b92915050565b5f8115159050919050565b6106808161066c565b82525050565b5f6020820190506106995f830184610677565b92915050565b5f82825260208201905092915050565b7f4164647265737320616c726561647920726567697374657265640000000000005f82015250565b5f6106e3601a8361069f565b91506106ee826106af565b602082019050919050565b5f6020820190508181035f830152610710816106d7565b9050919050565b7f496e646578206f7574206f6620626f756e6473000000000000000000000000005f82015250565b5f61074b60138361069f565b915061075682610717565b602082019050919050565b5f6020820190508181035f8301526107788161073f565b9050919050565b7f4e487b71000000000000000000000000000000000000000000000000000000005f52603260045260245ffd5b7f53656e646572206973206e6f74206120726567697374657265642061646472655f8201527f7373000000000000000000000000000000000000000000000000000000000000602082015250565b5f61080660228361069f565b9150610811826107ac565b604082019050919050565b5f6020820190508181035f830152610833816107fa565b9050919050565b7f4e487b71000000000000000000000000000000000000000000000000000000005f52601160045260245ffd5b5f610871826105be565b915061087c836105be565b92508282019050808211156108945761089361083a565b5b9291505056fea2646970667358221220d792916f485d150532022dee63a3df75550b74ed980f7c5b41476b7827bdce2264736f6c634300081c0033",
    "linkReferences": {}
  },
  "methodIdentifiers": {
    "assets(address)": "f11b8188",
    "getAsset(address)": "30b8b2c6",
    "getRegisteredAddress(uint256)": "508c7cdc",
    "getRegisteredCount()": "86a69935",
    "isRegistered(address)": "c3c5a547",
    "registAddress(address)": "1a5ff8c4",
    "registAsset(uint256)": "d4c29e1c",
    "registeredAddresses(uint256)": "6e9b8555"
  },
  "id": 21
}