{"abi":[{"type":"function","name":"assets","inputs":[{"name":"","type":"address","internalType":"address"}],"outputs":[{"name":"","type":"uint256","internalType":"uint256"}],"stateMutability":"view"},{"type":"function","name":"getAssetWithHash","inputs":[{"name":"addr","type":"address","internalType":"address"}],"outputs":[{"name":"asset","type":"uint256","internalType":"uint256"},{"name":"hashValue","type":"bytes32","internalType":"bytes32"}],"stateMutability":"view"},{"type":"function","name":"getHashValue","inputs":[{"name":"addr","type":"address","internalType":"address"}],"outputs":[{"name":"hashValue","type":"bytes32","internalType":"bytes32"}],"stateMutability":"view"},{"type":"function","name":"getRegisteredAddress","inputs":[{"name":"index","type":"uint256","internalType":"uint256"}],"outputs":[{"name":"","type":"address","internalType":"address"}],"stateMutability":"view"},{"type":"function","name":"getRegisteredCount","inputs":[],"outputs":[{"name":"","type":"uint256","internalType":"uint256"}],"stateMutability":"view"},{"type":"function","name":"hashValues","inputs":[{"name":"","type":"address","internalType":"address"}],"outputs":[{"name":"","type":"bytes32","internalType":"bytes32"}],"stateMutability":"view"},{"type":"function","name":"isRegistered","inputs":[{"name":"","type":"address","internalType":"address"}],"outputs":[{"name":"","type":"bool","internalType":"bool"}],"stateMutability":"view"},{"type":"function","name":"registAddress","inputs":[{"name":"addr","type":"address","internalType":"address"}],"outputs":[],"stateMutability":"nonpayable"},{"type":"function","name":"registerAssetWithHash","inputs":[{"name":"yen","type":"uint256","internalType":"uint256"},{"name":"hashValue","type":"bytes32","internalType":"bytes32"}],"outputs":[],"stateMutability":"nonpayable"},{"type":"function","name":"registeredAddresses","inputs":[{"name":"","type":"uint256","internalType":"uint256"}],"outputs":[{"name":"","type":"address","internalType":"address"}],"stateMutability":"view"}],"bytecode":{"object":"0x6080604052348015600e575f5ffd5b50610ae68061001c5f395ff3fe608060405234801561000f575f5ffd5b506004361061009c575f3560e01c80636e9b8555116100645780636e9b85551461016957806386a69935146101995780639efa1545146101b7578063c3c5a547146101e7578063f11b8188146102175761009c565b80630375af5d146100a05780631a5ff8c4146100d057806325bc15d8146100ec578063508c7cdc1461010857806369ef6f0414610138575b5f5ffd5b6100ba60048036038101906100b591906106e9565b610247565b6040516100c7919061072c565b60405180910390f35b6100ea60048036038101906100e591906106e9565b61025c565b005b610106600480360381019061010191906107a2565b61039c565b005b610122600480360381019061011d91906107e0565b6104be565b60405161012f919061081a565b60405180910390f35b610152600480360381019061014d91906106e9565b610547565b604051610160929190610842565b60405180910390f35b610183600480360381019061017e91906107e0565b6105ce565b604051610190919061081a565b60405180910390f35b6101a1610608565b6040516101ae9190610869565b60405180910390f35b6101d160048036038101906101cc91906106e9565b610613565b6040516101de919061072c565b60405180910390f35b61020160048036038101906101fc91906106e9565b610659565b60405161020e919061089c565b60405180910390f35b610231600480360381019061022c91906106e9565b610676565b60405161023e9190610869565b60405180910390f35b6003602052805f5260405f205f915090505481565b60015f8273ffffffffffffffffffffffffffffffffffffffff1673ffffffffffffffffffffffffffffffffffffffff1681526020019081526020015f205f9054906101000a900460ff16156102e6576040517f08c379a00000000000000000000000000000000000000000000000000000000081526004016102dd9061090f565b60405180910390fd5b5f81908060018154018082558091505060019003905f5260205f20015f9091909190916101000a81548173ffffffffffffffffffffffffffffffffffffffff021916908373ffffffffffffffffffffffffffffffffffffffff1602179055506001805f8373ffffffffffffffffffffffffffffffffffffffff1673ffffffffffffffffffffffffffffffffffffffff1681526020019081526020015f205f6101000a81548160ff02191690831515021790555050565b60015f3373ffffffffffffffffffffffffffffffffffffffff1673ffffffffffffffffffffffffffffffffffffffff1681526020019081526020015f205f9054906101000a900460ff16610425576040517f08c379a000000000000000000000000000000000000000000000000000000000815260040161041c9061099d565b60405180910390fd5b8160025f3373ffffffffffffffffffffffffffffffffffffffff1673ffffffffffffffffffffffffffffffffffffffff1681526020019081526020015f205f82825461047191906109e8565b925050819055508060035f3373ffffffffffffffffffffffffffffffffffffffff1673ffffffffffffffffffffffffffffffffffffffff1681526020019081526020015f20819055505050565b5f5f805490508210610505576040517f08c379a00000000000000000000000000000000000000000000000000000000081526004016104fc90610a65565b60405180910390fd5b5f828154811061051857610517610a83565b5b905f5260205f20015f9054906101000a900473ffffffffffffffffffffffffffffffffffffffff169050919050565b5f5f60025f8473ffffffffffffffffffffffffffffffffffffffff1673ffffffffffffffffffffffffffffffffffffffff1681526020019081526020015f205460035f8573ffffffffffffffffffffffffffffffffffffffff1673ffffffffffffffffffffffffffffffffffffffff1681526020019081526020015f205491509150915091565b5f81815481106105dc575f80fd5b905f5260205f20015f915054906101000a900473ffffffffffffffffffffffffffffffffffffffff1681565b5f5f80549050905090565b5f60035f8373ffffffffffffffffffffffffffffffffffffffff1673ffffffffffffffffffffffffffffffffffffffff1681526020019081526020015f20549050919050565b6001602052805f5260405f205f915054906101000a900460ff1681565b6002602052805f5260405f205f915090505481565b5f5ffd5b5f73ffffffffffffffffffffffffffffffffffffffff82169050919050565b5f6106b88261068f565b9050919050565b6106c8816106ae565b81146106d2575f5ffd5b50565b5f813590506106e3816106bf565b92915050565b5f602082840312156106fe576106fd61068b565b5b5f61070b848285016106d5565b91505092915050565b5f819050919050565b61072681610714565b82525050565b5f60208201905061073f5f83018461071d565b92915050565b5f819050919050565b61075781610745565b8114610761575f5ffd5b50565b5f813590506107728161074e565b92915050565b61078181610714565b811461078b575f5ffd5b50565b5f8135905061079c81610778565b92915050565b5f5f604083850312156107b8576107b761068b565b5b5f6107c585828601610764565b92505060206107d68582860161078e565b9150509250929050565b5f602082840312156107f5576107f461068b565b5b5f61080284828501610764565b91505092915050565b610814816106ae565b82525050565b5f60208201905061082d5f83018461080b565b92915050565b61083c81610745565b82525050565b5f6040820190506108555f830185610833565b610862602083018461071d565b9392505050565b5f60208201905061087c5f830184610833565b92915050565b5f8115159050919050565b61089681610882565b82525050565b5f6020820190506108af5f83018461088d565b92915050565b5f82825260208201905092915050565b7f4164647265737320616c726561647920726567697374657265640000000000005f82015250565b5f6108f9601a836108b5565b9150610904826108c5565b602082019050919050565b5f6020820190508181035f830152610926816108ed565b9050919050565b7f53656e646572206973206e6f74206120726567697374657265642061646472655f8201527f7373000000000000000000000000000000000000000000000000000000000000602082015250565b5f6109876022836108b5565b91506109928261092d565b604082019050919050565b5f6020820190508181035f8301526109b48161097b565b9050919050565b7f4e487b71000000000000000000000000000000000000000000000000000000005f52601160045260245ffd5b5f6109f282610745565b91506109fd83610745565b9250828201905080821115610a1557610a146109bb565b5b92915050565b7f496e646578206f7574206f6620626f756e6473000000000000000000000000005f82015250565b5f610a4f6013836108b5565b9150610a5a82610a1b565b602082019050919050565b5f6020820190508181035f830152610a7c81610a43565b9050919050565b7f4e487b71000000000000000000000000000000000000000000000000000000005f52603260045260245ffdfea26469706673582212205748cb79d5837295a095ada1024facfd20d053328ae1cff88df82fcc579b306964736f6c634300081c0033","linkReferences":{}},"methodIdentifiers":{"assets(address)":"f11b8188","getAssetWithHash(address)":"69ef6f04","getHashValue(address)":"9efa1545","getRegisteredAddress(uint256)":"508c7cdc","getRegisteredCount()":"86a69935","hashValues(address)":"0375af5d","isRegistered(address)":"c3c5a547","registAddress(address)":"1a5ff8c4","registerAssetWithHash(uint256,bytes32)":"25bc15d8","registeredAddresses(uint256)":"6e9b8555"},"id":16}