{
  "abi": [
    {
      "type": "function",
      "name": "decrement",
      "inputs": [],
      "outputs": [],
      "stateMutability": "nonpayable"
    },
    {
      "type": "function",
      "name": "increment",
      "inputs": [],
      "outputs": [],
      "stateMutability": "nonpayable"
    },
    {
      "type": "function",
      "name": "number",
      "inputs": [],
      "outputs": [
        {
          "name": "",
          "type": "uint256",
          "internalType": "uint256"
        }
      ],
      "stateMutability": "view"
    },
    {
      "type": "function",
      "name": "setNumber",
      "inputs": [
        {
          "name": "newNumber",
          "type": "uint256",
          "internalType": "uint256"
        }
      ],
      "outputs": [],
      "stateMutability": "nonpayable"
    }
  ],
  "bytecode": {
    "object": "0x6080604052348015600e575f5ffd5b506102f08061001c5f395ff3fe608060405234801561000f575f5ffd5b506004361061004a575f3560e01c80632baeceb71461004e5780633fb5c1cb146100585780638381f58a14610074578063d09de08a14610092575b5f5ffd5b61005661009c565b005b610072600480360381019061006d9190610154565b6100f7565b005b61007c610100565b604051610089919061018e565b60405180910390f35b61009a610105565b005b5f5f54116100df576040517f08c379a00000000000000000000000000000000000000000000000000000000081526004016100d690610201565b60405180910390fd5b5f5f8154809291906100f09061024c565b9190505550565b805f8190555050565b5f5481565b5f5f81548092919061011690610273565b9190505550565b5f5ffd5b5f819050919050565b61013381610121565b811461013d575f5ffd5b50565b5f8135905061014e8161012a565b92915050565b5f602082840312156101695761016861011d565b5b5f61017684828501610140565b91505092915050565b61018881610121565b82525050565b5f6020820190506101a15f83018461017f565b92915050565b5f82825260208201905092915050565b7f436f756e7465723a206e756d62657220697320616c7265616479207a65726f005f82015250565b5f6101eb601f836101a7565b91506101f6826101b7565b602082019050919050565b5f6020820190508181035f830152610218816101df565b9050919050565b7f4e487b71000000000000000000000000000000000000000000000000000000005f52601160045260245ffd5b5f61025682610121565b91505f82036102685761026761021f565b5b600182039050919050565b5f61027d82610121565b91507fffffffffffffffffffffffffffffffffffffffffffffffffffffffffffffffff82036102af576102ae61021f565b5b60018201905091905056fea26469706673582212209abdd91ec6ff20dede670f88ee7135492a108c16385019b439848786f333294b64736f6c634300081c0033",
    "linkReferences": {}
  },
  "methodIdentifiers": {
    "decrement()": "2baeceb7",
    "increment()": "d09de08a",
    "number()": "8381f58a",
    "setNumber(uint256)": "3fb5c1cb"
  },
  "id": 22
}