{"abi":[{"type":"function","name":"getMyUser","inputs":[],"outputs":[{"name":"name","type":"string","internalType":"string"},{"name":"addr","type":"address","internalType":"address"}],"stateMutability":"view"},{"type":"function","name":"getUser","inputs":[{"name":"userAddr","type":"address","internalType":"address"}],"outputs":[{"name":"name","type":"string","internalType":"string"},{"name":"addr","type":"address","internalType":"address"}],"stateMutability":"view"},{"type":"function","name":"registerUser","inputs":[{"name":"name","type":"string","internalType":"string"}],"outputs":[],"stateMutability":"nonpayable"},{"type":"event","name":"UserRegistered","inputs":[{"name":"userAddr","type":"address","indexed":true,"internalType":"address"},{"name":"name","type":"string","indexed":false,"internalType":"string"}],"anonymous":false}],"bytecode":{"object":"0x6080604052348015600e575f5ffd5b50610a2c8061001c5f395ff3fe608060405234801561000f575f5ffd5b506004361061003f575f3560e01c80636f77926b14610043578063704f1b9414610074578063ee7fb20914610090575b5f5ffd5b61005d600480360381019061005891906104b6565b6100af565b60405161006b929190610560565b60405180910390f35b61008e600480360381019061008991906106ba565b6101f3565b005b610098610308565b6040516100a6929190610560565b60405180910390f35b60605f5f5f5f8573ffffffffffffffffffffffffffffffffffffffff1673ffffffffffffffffffffffffffffffffffffffff1681526020019081526020015f206040518060400160405290815f820180546101099061072e565b80601f01602080910402602001604051908101604052809291908181526020018280546101359061072e565b80156101805780601f1061015757610100808354040283529160200191610180565b820191905f5260205f20905b81548152906001019060200180831161016357829003601f168201915b50505050508152602001600182015f9054906101000a900473ffffffffffffffffffffffffffffffffffffffff1673ffffffffffffffffffffffffffffffffffffffff1673ffffffffffffffffffffffffffffffffffffffff16815250509050805f015181602001519250925050915091565b60405180604001604052808281526020013373ffffffffffffffffffffffffffffffffffffffff168152505f5f3373ffffffffffffffffffffffffffffffffffffffff1673ffffffffffffffffffffffffffffffffffffffff1681526020019081526020015f205f820151815f01908161026d9190610907565b506020820151816001015f6101000a81548173ffffffffffffffffffffffffffffffffffffffff021916908373ffffffffffffffffffffffffffffffffffffffff1602179055509050503373ffffffffffffffffffffffffffffffffffffffff167f48cac28ad4dc618e15f4c2dd5e97751182f166de97b25618318b2112aa951a2f826040516102fd91906109d6565b60405180910390a250565b60605f5f5f5f3373ffffffffffffffffffffffffffffffffffffffff1673ffffffffffffffffffffffffffffffffffffffff1681526020019081526020015f206040518060400160405290815f820180546103629061072e565b80601f016020809104026020016040519081016040528092919081815260200182805461038e9061072e565b80156103d95780601f106103b0576101008083540402835291602001916103d9565b820191905f5260205f20905b8154815290600101906020018083116103bc57829003601f168201915b50505050508152602001600182015f9054906101000a900473ffffffffffffffffffffffffffffffffffffffff1673ffffffffffffffffffffffffffffffffffffffff1673ffffffffffffffffffffffffffffffffffffffff16815250509050805f0151816020015192509250509091565b5f604051905090565b5f5ffd5b5f5ffd5b5f73ffffffffffffffffffffffffffffffffffffffff82169050919050565b5f6104858261045c565b9050919050565b6104958161047b565b811461049f575f5ffd5b50565b5f813590506104b08161048c565b92915050565b5f602082840312156104cb576104ca610454565b5b5f6104d8848285016104a2565b91505092915050565b5f81519050919050565b5f82825260208201905092915050565b8281835e5f83830152505050565b5f601f19601f8301169050919050565b5f610523826104e1565b61052d81856104eb565b935061053d8185602086016104fb565b61054681610509565b840191505092915050565b61055a8161047b565b82525050565b5f6040820190508181035f8301526105788185610519565b90506105876020830184610551565b9392505050565b5f5ffd5b5f5ffd5b7f4e487b71000000000000000000000000000000000000000000000000000000005f52604160045260245ffd5b6105cc82610509565b810181811067ffffffffffffffff821117156105eb576105ea610596565b5b80604052505050565b5f6105fd61044b565b905061060982826105c3565b919050565b5f67ffffffffffffffff82111561062857610627610596565b5b61063182610509565b9050602081019050919050565b828183375f83830152505050565b5f61065e6106598461060e565b6105f4565b90508281526020810184848401111561067a57610679610592565b5b61068584828561063e565b509392505050565b5f82601f8301126106a1576106a061058e565b5b81356106b184826020860161064c565b91505092915050565b5f602082840312156106cf576106ce610454565b5b5f82013567ffffffffffffffff8111156106ec576106eb610458565b5b6106f88482850161068d565b91505092915050565b7f4e487b71000000000000000000000000000000000000000000000000000000005f52602260045260245ffd5b5f600282049050600182168061074557607f821691505b60208210810361075857610757610701565b5b50919050565b5f819050815f5260205f209050919050565b5f6020601f8301049050919050565b5f82821b905092915050565b5f600883026107ba7fffffffffffffffffffffffffffffffffffffffffffffffffffffffffffffffff8261077f565b6107c4868361077f565b95508019841693508086168417925050509392505050565b5f819050919050565b5f819050919050565b5f6108086108036107fe846107dc565b6107e5565b6107dc565b9050919050565b5f819050919050565b610821836107ee565b61083561082d8261080f565b84845461078b565b825550505050565b5f5f905090565b61084c61083d565b610857818484610818565b505050565b5b8181101561087a5761086f5f82610844565b60018101905061085d565b5050565b601f8211156108bf576108908161075e565b61089984610770565b810160208510156108a8578190505b6108bc6108b485610770565b83018261085c565b50505b505050565b5f82821c905092915050565b5f6108df5f19846008026108c4565b1980831691505092915050565b5f6108f783836108d0565b9150826002028217905092915050565b610910826104e1565b67ffffffffffffffff81111561092957610928610596565b5b610933825461072e565b61093e82828561087e565b5f60209050601f83116001811461096f575f841561095d578287015190505b61096785826108ec565b8655506109ce565b601f19841661097d8661075e565b5f5b828110156109a45784890151825560018201915060208501945060208101905061097f565b868310156109c157848901516109bd601f8916826108d0565b8355505b6001600288020188555050505b505050505050565b5f6020820190508181035f8301526109ee8184610519565b90509291505056fea2646970667358221220b0409ae4a4d3741e1db72e690ad429ecb2fdfe33e3d51b6831412708b1877a1864736f6c634300081c0033","linkReferences":{}},"methodIdentifiers":{"getMyUser()":"ee7fb209","getUser(address)":"6f77926b","registerUser(string)":"704f1b94"},"id":29}